{
  "transactions": [
    {
      "hash": "0xca5c3bcc6d77e85c77086e3ba4caa7f5745cdd920dd5dffb0ef9adf420e80618",
      "transactionType": "CALL",
      "contractName": null,
      "contractAddress": "0x779877a7b0d9e8603169ddbd7836e478b4624789",
      "function": "transferAndCall(address,uint256,bytes)",
      "arguments": [
        "0x9DdfaCa8183c41ad55329BdeeD9F6A8d53168B1B",
        "3000000000000000000",
        "0x5ad5d0a656fde583dc902f3350f32f7b5219db50d707779efad95c843dbb02be"
      ],
      "transaction": {
        "from": "0x7bbb2cfb1a2cbd319c5720eae107e4d7d98329be",
        "to": "0x779877a7b0d9e8603169ddbd7836e478b4624789",
        "gas": "0x1c1ff",
        "value": "0x0",
        "input": "0x4000aea00000000000000000000000009ddfaca8183c41ad55329bdeed9f6a8d53168b1b00000000000000000000000000000000000000000000000029a2241af62c0000000000000000000000000000000000000000000000000000000000000000006000000000000000000000000000000000000000000000000000000000000000205ad5d0a656fde583dc902f3350f32f7b5219db50d707779efad95c843dbb02be",
        "nonce": "0x58",
        "chainId": "0xaa36a7"
      },
      "additionalContracts": [],
      "isFixedGasLimit": false
    }
  ],
  "receipts": [
    {
      "status": "0x1",
      "cumulativeGasUsed": "0xebb45a",
      "logs": [
        {
          "address": "0x779877a7b0d9e8603169ddbd7836e478b4624789",
          "topics": [
            "0xddf252ad1be2c89b69c2b068fc378daa952ba7f163c4a11628f55a4df523b3ef",
            "0x0000000000000000000000007bbb2cfb1a2cbd319c5720eae107e4d7d98329be",
            "0x0000000000000000000000009ddfaca8183c41ad55329bdeed9f6a8d53168b1b"
          ],
          "data": "0x00000000000000000000000000000000000000000000000029a2241af62c0000",
          "blockHash": "0x79ab7cb7780d5a95a7d7784cce0a9cbcf01b1c2fc83d2fa9c92c3b9b9193b288",
          "blockNumber": "0x8f8e92",
          "blockTimestamp": "0x68ede908",
          "transactionHash": "0xca5c3bcc6d77e85c77086e3ba4caa7f5745cdd920dd5dffb0ef9adf420e80618",
          "transactionIndex": "0x4a",
          "logIndex": "0xa6",
          "removed": false
        },
        {
          "address": "0x779877a7b0d9e8603169ddbd7836e478b4624789",
          "topics": [
            "0xe19260aff97b920c7df27010903aeb9c8d2be5d310a2c67824cf3f15396e4c16",
            "0x0000000000000000000000007bbb2cfb1a2cbd319c5720eae107e4d7d98329be",
            "0x0000000000000000000000009ddfaca8183c41ad55329bdeed9f6a8d53168b1b"
          ],
          "data": "0x00000000000000000000000000000000000000000000000029a2241af62c0000000000000000000000000000000000000000000000000000000000000000004000000000000000000000000000000000000000000000000000000000000000205ad5d0a656fde583dc902f3350f32f7b5219db50d707779efad95c843dbb02be",
          "blockHash": "0x79ab7cb7780d5a95a7d7784cce0a9cbcf01b1c2fc83d2fa9c92c3b9b9193b288",
          "blockNumber": "0x8f8e92",
          "blockTimestamp": "0x68ede908",
          "transactionHash": "0xca5c3bcc6d77e85c77086e3ba4caa7f5745cdd920dd5dffb0ef9adf420e80618",
          "transactionIndex": "0x4a",
          "logIndex": "0xa7",
          "removed": false
        },
        {
          "address": "0x9ddfaca8183c41ad55329bdeed9f6a8d53168b1b",
          "topics": [
            "0x1ced9348ff549fceab2ac57cd3a9de38edaaab274b725ee82c23e8fc8c4eec7a",
            "0x5ad5d0a656fde583dc902f3350f32f7b5219db50d707779efad95c843dbb02be"
          ],
          "data": "0x000000000000000000000000000000000000000000000000000000000000000000000000000000000000000000000000000000000000000029a2241af62c0000",
          "blockHash": "0x79ab7cb7780d5a95a7d7784cce0a9cbcf01b1c2fc83d2fa9c92c3b9b9193b288",
          "blockNumber": "0x8f8e92",
          "blockTimestamp": "0x68ede908",
          "transactionHash": "0xca5c3bcc6d77e85c77086e3ba4caa7f5745cdd920dd5dffb0ef9adf420e80618",
          "transactionIndex": "0x4a",
          "logIndex": "0xa8",
          "removed": false
        }
      ],
      "logsBloom": "0x00001004000000000000000000000000000000000020000000000000020000000200000000000000000000000000000000000000000000000000000000004000000000000000000000000008000000000000000000000000000020000020000008000000000000000000000000000000000000000000020000000010000040000002000000000000000000010000800000000020000001000000000000000000000000000000000000000000010000000000000000000000000004000000000000000002000000000000000000000000000000000000000100000000000000000010000000000000800000000000000000000000000000000000000000000000",
      "type": "0x2",
      "transactionHash": "0xca5c3bcc6d77e85c77086e3ba4caa7f5745cdd920dd5dffb0ef9adf420e80618",
      "transactionIndex": "0x4a",
      "blockHash": "0x79ab7cb7780d5a95a7d7784cce0a9cbcf01b1c2fc83d2fa9c92c3b9b9193b288",
      "blockNumber": "0x8f8e92",
      "gasUsed": "0x133b1",
      "effectiveGasPrice": "0xf424e",
      "from": "0x7bbb2cfb1a2cbd319c5720eae107e4d7d98329be",
      "to": "0x779877a7b0d9e8603169ddbd7836e478b4624789",
      "contractAddress": null
    }
  ],
  "libraries": [],
  "pending": [],
  "returns": {},
  "timestamp": 1760422153223,
  "chain": 11155111,
  "commit": "5bd060a"
}